:020000040800F2
:10000000801600208D200008AD0E0008AF0E0008FD
:10001000B30E0008B70E0008BB0E00080000000079
:10002000000000000000000000000000BF0E0008FB
:10003000C10E000800000000C30E0008C50E000835
:10004000A7200008A7200008A7200008A720000874
:10005000A7200008A7200008A7200008A720000864
:10006000A7200008A7200008A7200008A720000854
:10007000A7200008A72000083D200008A7200008AE
:10008000A7200008A7200008A7200008A720000834
:10009000A7200008A7200008A7200008A720000824
:1000A000A7200008A7200008A7200008A720000814
:1000B000A7200008A7200008A7200008A720000804
:1000C000A7200008A7200008A7200008A7200008F4
:1000D000A720000803200008A7200008A720000888
:1000E000A7200008A7200008A7200008A7200008D4
:1000F000A7200008A7200008A7200008A7200008C4
:10010000A7200008A7200008A7200008A7200008B3
:10011000A7200008A7200008A7200008A7200008A3
:10012000A7200008A7200008A7200008A720000893
:1001300000F002F800F03AF80AA090E8000C8244BF
:100140008344AAF10107DA4501D100F02FF8AFF29C
:10015000090EBAE80F0013F0010F18BFFB1A43F0A5
:1001600001031847FC3500001C360000103A24BF7C
:1001700078C878C1FAD8520724BF30C830C144BF0C
:1001800004680C607047000000230024002500264E
:10019000103A28BF78C1FBD8520728BF30C148BFEA
:1001A0000B6070471FB51FBD10B510BD02F062FF98
:1001B0001146FFF7F7FF00F029FE02F094FF03B4A9
:1001C000FFF7F2FF03BC01F0F5FD000010B5FE489B
:1001D000006800287ED10A2001F0B9FDFA480068C5
:1001E0000028F7D100BFF84800680028FBD00020A5
:1001F000F54974310860F5480078401C40B2F34975
:100200000870084690F9000003280EDD00200870F1
:100210000C2001F02AFCEEA20021084601F07FFC30
:10022000F0A20121002001F07AFCE84800780128C2
:1002300073D1F1A20021084601F071FCF3A2012163
:10024000002001F06CFCF64800684FF47A7190FBD6
:10025000F1F201FB1200642190FBF1F03030C4B2E6
:1002600022460121042001F073FCED48006864215E
:1002700090FBF1F201FB12000A2190FBF1F030300B
:10028000C4B222460121052001F062FCE448006866
:100290000A2190FBF1F201FB12003030C4B2224679
:1002A0000121062001F054FCDE4800684FF47A7109
:1002B00090FBF1F201FB1200642190FBF1F0303071
:1002C000C4B222460121082001F042FCD548006852
:1002D000642100E070E090FBF1F201FB12000A21C2
:1002E00090FBF1F03030C4B222460121092001F028
:1002F0002FFCCC4800680A2190FBF1F201FB1200B0
:100300003030C4B2224601210A2001F021FCC6206F
:1003100001F0ABFB0F2001F0A8FBAC4800780228ED
:1003200005D1CA2001F0A1FB0F2001F09EFBA748D8
:100330000078032840D1BCA20021084601F0EFFB61
:10034000BEA20121002001F0EAFBC14800684FF481
:100350007A7190FBF1F201FB1200642190FBF1F045
:100360003030C4B222460121072001F0F1FBB84829
:100370000068642190FBF1F201FB12000A2190FB5E
:10038000F1F03030C4B222460121082001F0E0FB38
:10039000AF4800680A2190FBF1F201FB12003030F7
:1003A000C4B222460121092001F0D2FBC92001F08C
:1003B0005CFB0F2001F059FB8348001D00680028FA
:1003C0007ED10A2001F0C3FC7F48001D0068002890
:1003D000F6D100BF7C48001D00680028FAD07B4899
:1003E0000078012842D18F4800688D490968401A79
:1003F000012804DD8A480068401C89490860884853
:1004000000684FF47A7190FBF1F201FB1200642155
:1004100090FBF1F03030C4B222460121042001F0FB
:1004200097FB7F480068642190FBF1F201FB12000A
:100430000A2190FBF1F03030C4B2224601210520A0
:1004400001F086FB764800680A2190FBF1F201FB7F
:1004500012003030C4B222460121062001F078FBA0
:10046000C62001F002FB0F2001F0FFFA5748007888
:10047000022841D16B480068C82804DA694800683E
:10048000401C68490860674800684FF47A7190FB27
:10049000F1F201FB1200642190FBF1F03030C4B2A4
:1004A00022460121082001F053FB5E4800686421C8
:1004B00090FBF1F201FB12000A2190FBF1F000E049
:1004C0005EE03030C4B222460121092001F040FB39
:1004D000544800680A2190FBF1F201FB1200303011
:1004E000C4B2224601210A2001F032FBCA2001F0E9
:1004F000BCFA0F2001F0B9FA3448007803283FD144
:1005000053480068C82804DA51480068401C504924
:1005100008604F4800684FF47A7190FBF1F201FBDC
:100520001200642190FBF1F03030C4B22246012168
:10053000072001F00DFB46480068642190FBF1F2B2
:1005400001FB12000A2190FBF1F03030C4B22246C8
:100550000121082001F0FCFA3D4800680A2190FBC7
:10056000F1F201FB12003030C4B222460121092011
:1005700001F0EEFAC92001F078FA0F2001F075FAC7
:1005800011480830006800281DD10A2001F0DFFB67
:100590000D48083000680028F6D100BF0A4808302E
:1005A00000680028FAD00948007801287ED11C484C
:1005B0000068002804DD1A480068401E18490860D9
:1005C0001748006846E007E13081214254000020CE
:1005D00048523A2D2D2D202053704F323A2D2D2D7B
:1005E000000000002020202020202020202020208B
:1005F0002020202000000000202053657420546833
:10060000652053704F322020000000002020202061
:100610003030307E30303025202020200000000097
:100620004C000020500000202020536574205468A6
:1006300065204865617274200000000020202020A1
:1006400020202030303020202020202000000000FA
:10065000480000204FF47A7190FBF1F201FB120088
:10066000642190FBF1F03030C4B222460121042015
:1006700001F06EFAF7480068642190FBF1F201FB8B
:1006800012000A2190FBF1F03030C4B22246012161
:10069000052001F05DFAEF4800680A2190FBF1F2B5
:1006A00001FB12003030C4B2224600E009E0012113
:1006B000062001F04DFAC62001F0D7F90F2001F015
:1006C000D4F9E5480078022842D1E4480068E149BD
:1006D0000968401A012804DDE0480068401EDF492F
:1006E0000860DE4800684FF47A7190FBF1F201FB7C
:1006F0001200642190FBF1F03030C4B22246012197
:10070000082001F025FAD5480068642190FBF1F239
:1007100001FB12000A2190FBF1F03030C4B22246F6
:100720000121092001F014FACC4800680A2190FB4D
:10073000F1F201FB12003030C4B2224601210A203E
:1007400001F006FACA2001F090F90F2001F08DF9AE
:10075000C148007803283FD1C1480068002804DD63
:10076000BF480068401EBE490860BD4800684FF49D
:100770007A7190FBF1F201FB1200642190FBF1F021
:100780003030C4B222460121072001F0E1F9B4481B
:100790000068642190FBF1F201FB12000A2190FB3A
:1007A000F1F03030C4B222460121082001F0D0F926
:1007B000AB4800680A2190FBF1F201FB12003030D7
:1007C000C4B222460121092001F0C2F9C92001F07A
:1007D0004CF90F2001F049F910BD0EB54FF000089B
:1007E000A04D00269620A0490860002418E09F4AEA
:1007F00002EB84019E4A02EB840001F07CF89B48E6
:1008000050F82400A84202D2984850F82450974843
:1008100050F82400B04202D9944850F82460641C77
:10082000914800688442E2DB904850F82470914877
:100830009149924A924BCDE9002102908B4A8A4815
:1008400001688B4800F00EFEDFE20024854D002693
:10085000FFF7BCFC804800780028F5D1322420E066
:10086000824850F82410A4F13200804A42F8201047
:100870007F4850F82410A4F132007D4A42F820103D
:100880007A4850F82400A84202D2784850F8245000
:10089000764850F82400B04202D9744850F82460D9
:1008A000641C962CDCDB642459E0601E6F4951F80F
:1008B00020700A4602EB84016D4A02EB840001F0CD
:1008C0001AF86A4850F82400B84229D9674951F803
:1008D0002410C81B02F05EFD8146701B02F05AFD19
:1008E00082465146484602F077FC814665494846B3
:1008F00002F098FD8146404602F04CFD8246494692
:1009000002F05CFE81460021484602F057FD02D20B
:100910004FF0000822E0484602F020FD80461DE02E
:10092000524951F82410781A02F034FD8146701BA8
:1009300002F030FD82465146484602F04DFC8146A9
:100940005049484602F06EFD8146484602F006FDD9
:100950008044B8F1FF0F01D94FF0FF08641C962CBA
:10096000A3DB44484449454A454BCDE90021029068
:100970003E4A3D4801683E4800F074FD4248016827
:100980000068401C404A10600A2961DD00201146C1
:1009900008603848007801285BD1374800689628FD
:1009A00057DA354800683C2853DD00203749086095
:1009B00037480068042819D1012036490860002012
:1009C000334908600C240EE0334850F824000A3004
:1009D00029490968884205DD00202E490860042065
:1009E0002B490860641C102CEEDB04E028480068EA
:1009F000401C2749086027480068002821D10024AE
:100A000006E02549601C51F8200041F82400641CD0
:100A10000F2CF6DB184800681F49C8631F480068A0
:100A2000102804DA1D480068401C1C49086000209A
:100A30001B49086019480068022803DA0020194998
:100A4000086082E01548006804283EDA0E2434E08D
:100A5000DBE17EE04C00002054000020500000202C
:100A600048000020FFFF0300000000209407002042
:100A70003C050020100000200C0000200800002091
:100A80000400002000007F434400002040000020BC
:100A90002C00002034000020EC0900202800002059
:100AA0001400002018000020EB4850F82400EB4907
:100AB00009680844E9490860641C102CF4DBE74825
:100AC00000684010E64908603FE0E64800680828F2
:100AD00012DA0C2408E0E04850F82400DF490968E5
:100AE0000844DE490860641C102CF4DBDB48006815
:100AF0008010DB49086028E0DA480068102812DA24
:100B0000082408E0D44850F82400D449096808446F
:100B1000D2490860641C102CF4DBD0480068C01077
:100B2000CF49086011E0002408E0CB4850F82400C9
:100B3000CA4909680844C9490860641C102CF4DBE0
:100B4000C64800680011C64908600020C649086010
:100B500011E00020C5490860C5480068042805D197
:100B60000020BF490860BF49086004E0C048006831
:100B7000401CBF490860BF48007801287ED1BE48AC
:100B8000006846287ADD0020BC490860BC4800683F
:100B9000042819D10120BB4908600020B849086029
:100BA0000C240EE0B84850F824000A38B24909680D
:100BB000884205DA0020B34908600420B049086083
:100BC000641C102CEEDB04E0AD480068401CAC490E
:100BD0000860AC48006800287AD1002406E0AA49E1
:100BE000601C51F8200041F82400641C0F2CF6DB37
:100BF000A1480068A449C863A4480068102804DA22
:100C0000A2480068401CA14908600020A049086073
:100C10009E480068022803DA00209E49086057E0D9
:100C20009A480068042812DA0E2408E0964850F822
:100C3000240097490968084495490860641C102CF1
:100C4000F4DB9348006840109249086040E08F4808
:100C50000068082813DA0C2408E08B4850F82400B8
:100C60008B49096808448A490860641C102CF4DB2D
:100C70008748006880108749086029E02CE0834895
:100C80000068102812DA082408E07F4850F8240091
:100C90007F49096808447E490860641C102CF4DB15
:100CA0007B480068C0107B49086011E0002408E020
:100CB000754850F82400764909680844744908606A
:100CC000641C102CF4DB7248006800117149086044
:100CD00000206C49086011E00020694908606748FD
:100CE0000068042805D100206A4908606749086047
:100CF00004E062480068401C604908605848006889
:100D00004FF47A7190FBF1F201FB1200642190FB29
:100D1000F1F0303000F0FF0A52460021032000F0CD
:100D200017FF4F480068642190FBF1F201FB1200AD
:100D30000A2190FBF1F0303000F0FF0A524600210A
:100D4000042000F005FF464800680A2190FBF1F2FC
:100D500001FB1200303000F0FF0A5246002105204E
:100D600000F0F6FE4B4800684FF47A7190FBF1F208
:100D700001FB1200642190FBF1F0303000F0FF0A1B
:100D8000524600210D2000F0E3FE42480068642135
:100D900090FBF1F201FB12000A2190FBF1F03030E0
:100DA00000F0FF0A524600210E2000F0D1FE394823
:100DB00000680A2190FBF1F201FB1200303000F0D4
:100DC000FF0A524600210F2000F0C2FE24480068AE
:100DD00028B1234800683049096888420EDA2D4856
:100DE000006878B12B4800682C490968884205DD05
:100DF000284800682A490968884203DB01202949FC
:100E0000086002E00020274908601EE500F062FF4C
:100E100000F0CAFF4FF4FA7000F099FF00F0E5FE11
:100E200000F032FFAFF658020021084600F077FECE
:100E3000AFF650020121002000F071FE00F04BF9E6
:100E400000F0C6FD1849002000F0DCFC00F003FDB6
:100E500001E0FFF7C2FCFCE7EC09002014000020D1
:100E60001800002028000020340000202C00002062
:100E70004000002008000020040000203C0000206A
:100E800030000020380000202C0A00202400002020
:100E90001C00002020000020480000204C00002002
:100EA00050000020A481214211000020704700BFA3
:100EB000FEE700BFFEE700BFFEE700BFFEE77047AA
:100EC00070477047704700000CB5002001900090FB
:100ED0006C48006840F480306A49086000BF694887
:100EE000006800F4003000900198401C01900098C8
:100EF00018B90198B0F5A06FF1D16248006800F40C
:100F0000003010B10120009001E000200090009816
:100F1000012843D15C48006840F010005A4908603D
:100F20000846006820F0030008600846006840F0AA
:100F300002000860534840685249486008464068CB
:100F400048600846406840F4806048600846406851
:100F500020F47C1048600846406840F4E81048607F
:100F60000846006840F08070086000BF454800688F
:100F700000F000700028F9D04248406820F00300DB
:100F8000404948600846406840F00200486000BFA1
:100F90003C48406800F00C000828F9D10CBD10B5A1
:100FA000FFF792FF10BD10B53648006840F0010011
:100FB000344908600846406834490840314948606F
:100FC00008460068324908402E4908600846006813
:100FD00020F4802008600846406820F4FE00486045
:100FE0004FF41F008860FFF7DAFF4FF000602949D7
:100FF000086010BD10B5002100200022214B5B6865
:1010000003F00C0121B1042906D0082928D107E0FA
:10101000214B224C236027E01F4B204C236023E010
:10102000184B5B6803F47010164B5B6803F4803256
:10103000022303EB904022B9194B4343174C236022
:101040000DE0104B5B6803F4003323B1144B4343B2
:10105000124C236003E0104B4343104C236003E029
:101060000D4B0E4C236000BF00BF064B5B68C3F303
:1010700003130C4CE15C094B1B68CB40074C23600D
:1010800010BD000000100240002002400000FFF8E8
:10109000FFFFF6FE08ED00E000127A005800002085
:1010A00000093D005C000020002001E0411CC8B2A6
:1010B0001E28FBDB704710B5802074490860402073
:1010C000091F0860FFF7F0FF80207049091F0860C2
:1010D000FFF7EAFF10BD08B50121082001F012FB5F
:1010E00003208DF8020014208DF803004020ADF895
:1010F000000069466548143801F048F88020ADF8D2
:10110000000069466148143801F040F8FFF7D3FF4A
:1011100008BD10B580205D49091F086040200860A7
:10112000FFF7C2FF802059490860FFF7BDFF40204C
:1011300056490860FFF7B8FF10BD70B5044600259A
:1011400020E004F0800020B180205049091F086091
:1011500002E080204D490860FFF7A6FF40204B4980
:10116000091F0860FFF7A0FF402048490860072DCD
:1011700002D18020091F08606006040EFFF794FF6B
:10118000681CC5B2082DDCDB70BD70B500240025DD
:1011900016E06006040E40203C49091F0860FFF776
:1011A00083FF3A480C38006800F0800008B1601CEA
:1011B000C4B2402035490860FFF776FF681CC5B20D
:1011C000082DE6DB204670BD10B580202F49091F91
:1011D0000860FFF769FF40202C49091F0860FFF7EE
:1011E00063FF2A480C38006800F0800008B1012431
:1011F00000E00024402025490860FFF755FF204605
:1012000010BD10B5802021490860FFF74DFF402038
:101210001E49091F0860FFF747FF40201B4908606F
:10122000FFF742FF80201949091F086010BD10B563
:1012300080201649091F0860FFF736FF4020134938
:10124000091F0860FFF730FF402010490860FFF7D2
:101250002BFF10BD70B504460C480C38006800F038
:10126000800088B109480C38006800F0400058B18F
:10127000FFF74FFF2046FFF760FFFFF7A5FF05468A
:10128000FFF719FF284670BD0120FCE7140C014050
:1012900030B50C46012213E050F82230114605E02B
:1012A0004D1E50F8255040F82150491E002904DDFC
:1012B0004D1E50F825509D42F2DC40F82130521C62
:1012C000A242E9DB30BDF0B503461546012217E026
:1012D00051F82240104605E0461E51F8266041F8BC
:1012E0002060401E002808DD53F82470461E51F887
:1012F000266053F82660B742EEDC41F82040521CCD
:10130000AA42E5DBF0BD2DE9F04F05460C469246BA
:101310009846294650462268FFF7D5FF4FF0FF3622
:1013200021E0D4F800B0701C2060771C18E055F85C
:101330002710701C10B94FF0FF3001E055F826005F
:10134000A1EB0009C14503DCC8F10000814506DAC4
:1013500055F827102268501C206045F822107F1C89
:101360005F45E4DB761C2068B042DADC2846216861
:10137000FFF78EFFBDE8F08F2DE9F04705461E46CA
:10138000089C01204FF00008002300274FF0040CB8
:101390004FF00009C1F800903DE0BFBB52F820902B
:1013A000A14509DD52F820A0A0F1010952F82990C9
:1013B000CA4501DD4FF00108B8F1010F2AD152F8FA
:1013C0002090A14505DA634503DA4FF000080023B9
:1013D00020E063451BD152F82090A1451ADAA0F114
:1013E000010952F82990A14514DBD1F80090B9F118
:1013F0000F0F07DAD1F800A00AF10109C1F8009037
:1014000045F82A0000239846082703E001E05B1C0A
:1014100000E07F1E401CA6F101098145BDDCBDE84E
:10142000F0872DE9F84705460C4616461F46DDE9CC
:101430000A9ADDF824803B46324621462846CDF8FC
:101440000080FFF799FF4B46324621462846FFF7BA
:101450005AFF2068504501DA206800E050462060BD
:10146000BDE8F8872DE9FF4FA4B0834688460020E9
:101470002390002405E05BF824102398084423906F
:10148000641C4445F7DB2398B0FBF8F0239000245C
:1014900008E05BF824102398081A4042C44941F838
:1014A0002400641C4445F4DB002417E0C04951F8D3
:1014B00024200B46611C53F821100A44A11C53F848
:1014C00021100A44E11C53F821105018C11700EBF9
:1014D000917189101A4642F82410641C922CE5DBA5
:1014E0000027002404E0B24850F824000744641C9C
:1014F000962CF8DB962097FBF0F71E2F00DA1E27BC
:101500003C2F00DD3C27002404E0002012A941F814
:101510002400641C0F2CF8DB0F2004219623A44A1E
:10152000CDE90071029021A912A8FFF77AFF0020EF
:1015300011902198022821DB01240BE012A850F819
:101540002410601E12AA52F82000091A11980844AB
:101550001190641C21988442F0DB2198401E11995F
:1015600091FBF0F0119040F6B831119891FBF0F139
:101570003298016001213398017005E08D4932985D
:10158000016000213398017000240BE05BF8240017
:10159000874941F82400269850F82400864941F8EC
:1015A0002400641C4445F1DB219822900020059022
:1015B0000026002404E0002006A941F82400641C51
:1015C000052CF8DB00240EE012A850F82400962821
:1015D00008DD78492798016000213198017028B012
:1015E000BDE8F08F641C22988442EDDB0024A3E068
:1015F0004FF07F400D900C9012A9601C51F8200014
:1016000051F82410401A03287EDD12A850F8245007
:1016100016E0674850F825100C98814204DD6448B4
:1016200050F825000C900B95634850F825100D9844
:10163000814204DD604850F825000D90AA466D1CDB
:1016400012A9601C51F82000A842E2DC601C51F88D
:101650002000594951F8200012A951F82410564A87
:1016600052F82110401A12A951F82410AAEB0101D6
:101670004843109012A9601C51F8200051F8241022
:10168000411A109890FBF1F012A951F8241052F869
:10169000211008441090104650F82A101098081A8B
:1016A000109012A9601C51F82000414951F8200007
:1016B00012A951F824103E4A52F82110401A12A9DA
:1016C00051F824200B99891A48430F9012A9601CE5
:1016D00051F8200051F82410411A0F9890FBF1F0B6
:1016E00012A951F82410324A52F8211008440F90E0
:1016F000104650F82A100F98081A0F900C9910985D
:101700004843C011049000E015E00D990F9848433C
:10171000C0110390039800280DDD052E0BDA049804
:1017200048B1642104984843039990FBF1F006A95D
:1017300041F82600761C641C2298401EA0423FF708
:1017400057AF314606A8FFF7A3FD304606EBD07130
:101750004FEA6109B9F1010F0CDDA9F1010106AAF7
:1017600052F8211052F82920881800EBD071491046
:10177000059103E006A850F8290005900598022875
:101780000DDD0598B8280ADA0C490598085C0E901A
:1017900027990E98086001213198017005E00549EC
:1017A0002798016000213198017000BF17E7000001
:1017B0006C0A002019FCFFFFC40C0020A6360008AC
:1017C00070B505460C46FFF7A4FCAE20FFF7B5FC4C
:1017D000FFF7FAFC00B111E02846FFF7AEFCFFF777
:1017E000F3FC00B10AE02046FFF7A7FCFFF7ECFC92
:1017F00000B103E0FFF75FFC012070BDFFF75BFC69
:101800000020FAE770B505460C46FFF782FCAE20D3
:10181000FFF793FCFFF7D8FC00B118E02846FFF76C
:101820008CFCFFF7D1FC00B111E0FFF772FCAF2098
:10183000FFF783FCFFF7C8FC00B108E0FFF7A5FC49
:101840002070FFF7F4FCFFF736FC012070BDFFF7B6
:1018500032FC0020FAE710B5C0210220FFF7B0FFEC
:1018600008B9002010BD00210320FFF7A9FF08B927
:101870000020F7E700210420FFF7A2FF08B90020AD
:10188000F0E700210520FFF79BFF08B90020E9E7FA
:1018900000210620FFF794FF08B90020E2E76F213E
:1018A0000820FFF78DFF08B90020DBE7032109209E
:1018B000FFF786FF08B90020D4E72F210A20FFF7A1
:1018C0007FFF08B90020CDE717210C20FFF778FF34
:1018D00008B90020C6E717210D20FFF771FF08B9EE
:1018E0000020BFE77F211020FFF76AFF08B9002022
:1018F000B8E70120B6E7F8B504460D460020286099
:1019000020606946FFF77EFF69460120FFF77AFFF6
:10191000FFF7FFFBAE20FFF710FCFFF755FC18B1F7
:1019200030A001F0F1FA4FE00720FFF706FCFFF7C7
:101930004BFC00B148E0FFF7ECFBAF20FFF7FDFBED
:10194000FFF742FC00B13FE0FFF71FFC0646FFF740
:1019500058FC3604206830442060FFF716FC064629
:10196000FFF74FFC3602206830442060FFF70DFC83
:101970000646FFF746FC206830442060FFF705FC70
:101980000646FFF73EFC3604286830442860FFF71F
:10199000FCFB0646FFF735FC360228683044286019
:1019A000FFF7F3FB0646FFF72CFC2868304428605D
:1019B0002068C0F3110020602868C0F3110028607F
:1019C000FFF779FB0120F8BDFFF775FB0020FAE770
:1019D00010B540210920FFF7F3FE08B9002010BD23
:1019E0000120FCE772656164206669666F206661AC
:1019F000696C65640000000010B5024600210020FB
:101A000000BF0AE042FA01F303F00103C1F1070449
:101A1000A3400344D8B24B1CD9B20829F2DB10BD55
:101A200010B54FF4005096494861012000F06BF961
:101A30004FF4804092490861012000F064F94FF4AE
:101A400000408F494861012000F05DF9FF218C487A
:101A500000F052FC012000F07AF94FF40040884970
:101A60000861642000F04FF910BD70B504464FF4D2
:101A7000005083494861012000F045F94FF480404F
:101A80007F494861012000F03EF94FF400407C4955
:101A90000861012000F037F97A4800F020FC00F4DA
:101AA0007F462046FFF7A8FF304485B22946754897
:101AB00000F022FC642000F026F94FF40040704949
:101AC000486170BD70B504464FF400506C49086120
:101AD000012000F018F94FF4804069494861012065
:101AE00000F011F94FF4004065490861012000F051
:101AF0000AF9644800F0F3FB00F47F462046FFF744
:101B00007BFF304485B229465E4800F0F5FB642037
:101B100000F0F9F84FF400405949486170BD70B5C4
:101B200005460E4614462EB905F18001C8B2FFF7EE
:101B30009CFF04E005F1C001C8B2FFF796FF03E087
:101B40002078FFF7BFFF641C20780028F8D170BD13
:101B500070B504460D4616462DB904F18001C8B291
:101B6000FFF783FF04E004F1C001C8B2FFF77DFF77
:101B70003046FFF7A7FF70BD2DE9FE4307468846B4
:101B800014461D460C2602E020200DF80600300009
:101B9000A6F10101CEB2F7D10DF8050011E02CB984
:101BA0000A20B4FBF0F100FB114038B10A20B4FB6D
:101BB000F0F100FB114030300DF805000A20B4FBB5
:101BC000F0F42800A5F10101CDB2E8D16A46414602
:101BD0003846FFF7A4FFBDE8FE8310B50120FFF7EC
:101BE00044FF052000F0B3F810BD08B50121142012
:101BF00000F088FDFF20ADF8000010208DF80300F4
:101C000003208DF8020069461E4800F0BFFA4FF429
:101C10006040ADF8000010208DF8030003208DF81F
:101C200002006946164800F0B1FA3820FFF71DFFA0
:101C3000052000F08CF83820FFF717FF052000F092
:101C400086F83820FFF711FF052000F080F8082003
:101C5000FFF70BFF052000F07AF80120FFF705FFE2
:101C6000052000F074F80620FFF7FFFE052000F0C5
:101C70006EF80C20FFF7F9FE052000F068F808BDAB
:101C8000001001400008014008B50121082000F0C3
:101C900039FD4FF4E040ADF8000048208DF8030016
:101CA00069460B4800F072FA4FF40070ADF800007E
:101CB00010208DF8030003208DF8020069460448C7
:101CC00000F064FA4FF40071014800F00EFB08BD0B
:101CD000000C014010B56FF0040000F0CAFF2E4860
:101CE00000682E49B0FBF1F02D49087008460078D5
:101CF00000EB4001C1EBC0104FF6FF7101EAC000DC
:101D00002849088010BD0146254A12784A434FF001
:101D1000E0235A6100229A611A46126942F00102D8
:101D20001A6100BF4FF0E022106900F001021AB101
:101D300000F48032002AF5D04FF0E022126922F040
:101D400001024FF0E0231A6100229A6170470146B8
:101D5000144A12884A434FF0E0235A6100229A61E4
:101D60001A46126942F001021A6100BF4FF0E022E8
:101D7000106900F001021AB100F48032002AF5D097
:101D80004FF0E022126922F001024FF0E0231A61C5
:101D900000229A61704700005800002000127A006B
:101DA0006C0000206E00002010B54FF4A06000F021
:101DB00011FF10BD014600BF704700BFAC4A12883A
:101DC00002F04002002AF9D0C2B2A94B1B1D1A80B2
:101DD000704710B592B004460121052000F092FC36
:101DE0004FF40070ADF8400018208DF84300032038
:101DF0008DF8420010A99F4800F0C8F94FF48060A8
:101E0000ADF8400004208DF8430003208DF8420017
:101E100010A9984800F0BAF90121880300F072FC7B
:101E20000C940020ADF83400ADF83600ADF8380061
:101E3000ADF83C000C20ADF83A000CA98C4800F03D
:101E400008FD01218A4800F090FD4021884800F0FB
:101E500074FE25208DF8440002208DF845008DF891
:101E6000460001208DF8470011A800F0B8FE0022BE
:101E700040F226617E4800F084FD002240F22551A8
:101E80007B4800F07EFD002240F22771784800F088
:101E900078FD012240F22441754800F072FD0122D4
:101EA0004021734800F092FD01228021704800F02B
:101EB0008DFD0121084600F018FC6F4800F0F8FE87
:101EC0006B48001D01906D48029010200390402047
:101ED0000490002005908020069000200790089034
:101EE0002020099000020A9000200B9001A962486E
:101EF00000F080FF012202215F4800F0B2FF0021C4
:101F00005D4800F0A2FF0E208DF8440001208DF8FE
:101F1000450002208DF8460001208DF8470011A8E9
:101F200000F05DFE0121084600F0DFFB524814304E
:101F300000F0BEFE4E48001D019051480290002066
:101F400003904020049000200590802006900020FF
:101F50000790089020200990C0010A9000200B9063
:101F600001A94548143000F045FF012142481430D2
:101F700000F06BFF12B010BD70B505460C4600BFF7
:101F8000404800780028FBD101203E4908702246D5
:101F900029463A4800F0C4FF0021374800F055FFB9
:101FA0003548443884640121334800F04EFF70BD49
:101FB00070B5054600242E4800882D48001D008875
:101FC00000212D48143000F040FF4FF4003000F0A5
:101FD0008AFF2948143000F04FFFC0F1400084B25E
:101FE00022462749284600F09BFF40212248143012
:101FF00000F040FF01212048143000F026FFE0B23D
:1020000070BD10B540F22661194800F09FFD40B147
:10201000002240F22661164800F0B3FC0020194966
:10202000087040F22441124800F090FD28B1164893
:10203000FFF7BEFF1449491E087010BD10B54FF4DC
:10204000005000F03CFF68B14FF4005000F04BFF2F
:102050000021094800F0F9FE012240F226610448FF
:1020600000F08FFC10BD00200749491E0870704722
:102070000038014000080140440002401C0F0020CD
:102080005C0F0020700000209D0F00200948804751
:1020900009480047FEE7FEE7FEE7FEE7FEE7FEE74A
:1020A000FEE7FEE7FEE7FEE704480549054A064B62
:1020B00070470000A70F00083101000880100020C1
:1020C00080160020801200208012002010B50446E7
:1020D000CC48844208D10121042000F02DFB0021CE
:1020E000042000F029FB46E0C748844208D10121C2
:1020F000082000F021FB0021082000F01DFB3AE041
:10210000C248844208D10121102000F015FB0021B3
:10211000102000F011FB2EE0BD48844208D10121BF
:10212000202000F009FB0021202000F005FB22E028
:10213000B848844208D10121402000F0FDFA002176
:10214000402000F0F9FA16E0B348844208D101219A
:10215000802000F0F1FA0021802000F0EDFA0AE082
:10216000AE48844207D10121801500F0E5FA002134
:10217000A01500F0E1FA10BD10B50121084600F0ED
:10218000DBFA0021012000F0D7FA10BD2DE9F04163
:10219000024600250026002000230024002791F895
:1021A00003C00CF00F0591F803C00CF0100CBCF14B
:1021B000000F03D091F802C04CEA050591F800C069
:1021C000BCF1000F31D0146800202BE04FF0010C5F
:1021D0000CFA00F3B1F800C00CEA03069E4220D1CD
:1021E00083004FF00F0C0CFA03F7BC4305FA03FC15
:1021F0004CEA040491F803C0BCF1280F06D14FF05B
:10220000010C0CFA00FCC2F814C00AE091F803C0FB
:10221000BCF1480F05D14FF0010C0CFA00FCC2F8DC
:1022200010C0401C0828D1D31460B1F800C0BCF124
:10223000FF0F34DD546800202EE000F1080C4FF051
:10224000010808FA0CF3B1F800C00CEA03069E423C
:1022500021D183004FF00F0C0CFA03F7BC4305FAB1
:1022600003FC4CEA040491F803C0BCF1280F05D12B
:1022700000F1080C08FA0CF8C2F8148091F803C0B9
:10228000BCF1480F07D100F1080C4FF0010808FA23
:102290000CF8C2F81080401C0828CED35460BDE86A
:1022A000F0814FF6FF710180022181700421C1701D
:1022B00070470246002093680B400BB1012000E0FC
:1022C000002070470146886880B2704702460020AF
:1022D000D3680B400BB1012000E00020704701469D
:1022E000C86880B2704701617047416170470AB1A8
:1022F000016100E041617047C16070474FF4803276
:102300000A43826181618261826982697047024603
:102310000020434B18684FF68073184040EA0210C3
:1023200008433F4B186070473E49C8617047F0B59D
:102330000A46002300240021002500F00046B6F1E3
:10234000004F02D1364EF16901E0354E7168C0F39D
:10235000034583B200F44016B6F5401F08D121F0C2
:1023600070612F4E766826F070662D4F7E6012E009
:1023700000F48016B6F5801F06D1032606FA05F490
:10238000A14341F0706106E0460D360103FA06F6FE
:10239000B14341F0706122B1460D360103FA06F6F1
:1023A000314300F00046B6F1004F02D11C4EF161FE
:1023B00001E01B4E7160F0BD30B500228B071C0F91
:1023C0000F2303FA04F2164B08338C1053F8243011
:1023D0009343134C08348D1044F8253023468C1059
:1023E00053F824308C07240F00FA04F423430C4CD8
:1023F00008348D1044F8253030BD0A49DC310860BE
:102400007047000000080140000C0140001001402E
:102410000014014000180140001C01400020014050
:102420000000014000002042DF48006840F0010049
:10243000DD49086008464068DC490840DA494860E0
:1024400008460068DA490840D7490860084600682D
:1024500020F4802008600846406820F4FE004860B0
:102460004FF41F0088607047CF49096821F480311C
:10247000CD4A11601146096821F480211160B0F540
:10248000803F03D0B0F5802F0ED106E0C649096821
:1024900041F48031C44A116007E0C349096841F43E
:1024A000A021C14A116000E000BF00BF704710B515
:1024B00001460022002300204A11012A02D1BA4C11
:1024C000236806E0022A02D1B74C236A01E0B64C29
:1024D000636A01F01F02012494401C400CB10120EA
:1024E00000E0002010BD38B5002000900024002539
:1024F00000BF3120FFF7DBFF05460098401C00902D
:102500000098B0F5A06F01D0002DF2D03120FFF778
:10251000CEFF08B1012400E00024204638BD01466A
:102520000020A14A106820F0F80040EAC1001060C5
:102530007047A04908607047024600209A4B5868CF
:1025400020F47C1042EA01031843974B586070470F
:1025500098490866704701460020934A506820F069
:1025600003000843506070478F48406800F00C003B
:102570007047014600208C4A506820F0F000084364
:102580005060704701460020874A506820F4E060A0
:1025900008435060704701460020834A506820F489
:1025A000605040EAC1005060704729B17E4A527ABB
:1025B00002437D4B5A7204E07B4A527A82437A4B43
:1025C0005A7270477B49D831086070470146002035
:1025D000754A506820F4404008435060704700211D
:1025E000714A20321170704A82F82010012802D0FE
:1025F00004280AD104E001216B4A2032117005E061
:102600000521694A2032117000E000BF00BF704709
:102610006949086070476449096A0143624A116266
:102620007047654944390860704730B50021002281
:10263000002400235C4D6D6805F00C0121B10429D4
:1026400005D0082923D105E05C4D056022E05B4DF3
:1026500005601FE0544D6D6805F47012524D6D68B1
:1026600005F48034022505EB92421CB9544D5543C4
:1026700005600BE04C4D6D6805F400351DB1504D03
:102680005543056002E04D4D5543056002E04B4D5A
:10269000056000BF00BF444D6D6805F0F0010909F9
:1026A000484D6B5C0568DD4045603F4D6D6805F445
:1026B000E061090A434D6B5C4568DD4085603A4D39
:1026C0006D6805F46051C90A3E4D6B5C4568DD409C
:1026D000C560354D6D6805F44041890B3A4D6B5C22
:1026E000C568B5FBF3F5056130BD29B12E4A5269C5
:1026F00002432D4B5A6104E02B4A526982432A4B14
:102700005A61704729B1284A92690243264B9A615F
:1027100004E0254A92698243234B9A61704729B1AC
:10272000214AD2690243204BDA6104E01E4AD26991
:1027300082431D4BDA61704729B11B4AD2680243BC
:10274000194BDA6004E0184AD2688243164BDA600B
:10275000704729B1144A12690243134B1A6104E00D
:10276000114A12698243104B1A617047124940396D
:10277000086070470F49C86470470B49C8717047BB
:102780000948406A40F08070074948627047014636
:102790000020054A92680A400AB1012000E00020AA
:1027A0007047014988727047001002400000FFF82E
:1027B000FFFFF6FE000042428004424200127A000F
:1027C00000093D00780000208800002010B5044674
:1027D000FB48844209D101218803FFF7ADFF0021A6
:1027E0004FF48040FFF7A8FF32E0F648844209D159
:1027F00001214804FFF7ADFF00214FF40030FFF73F
:10280000A8FF25E0F048844209D101218804FFF7A0
:10281000A0FF00214FF48020FFF79BFF18E0EB485A
:10282000844209D10121C804FFF793FF00214FF42E
:102830000020FFF78EFF0BE0E548844208D101211C
:102840000805FFF786FF00214FF48010FFF781FF96
:1028500010BD2DE9F04786B005460E460024A2467D
:1028600000BFA1460027B08900B100BF2F462C8AC7
:102870004CF6FF700440F08804432C82AC894EF67D
:10288000F3100440B0883189084371890843044338
:10289000AC81AC8A4FF6FF400440B0890443AC825F
:1028A00001A8FFF7C2FEC648874202D1DDF810A09A
:1028B00001E0DDF80CA0A88900F4004040B10AEB6B
:1028C000CA0000EB0A1031684900B0FBF1F807E0DC
:1028D0000AEBCA0000EB0A1031688900B0FBF1F87E
:1028E0006420B8FBF0F004012009642101FB108989
:1028F000A88900F4004040B1322000EBC900B0FBD1
:10290000F1F000F00700044308E0322000EB09106A
:102910006421B0FBF1F000F00F0004432C8106B0FD
:10292000BDE8F0874FF41651016000218180C1801D
:1029300001810C21418100218181704710B502463F
:102940000020108A4FF2FF0318400B884C88234365
:102950008C882343CC8823431843108210BD002168
:10296000018041808180C180704721B1828942F419
:102970000052828104E082894DF6FF731A40828101
:102980007047F0B50346002400260025002040F6DD
:102990006A17B94200D100BF1846C1F3421401F0D2
:1029A0001F06012707FA06F5012C01D10C3004E0BF
:1029B000022C01D1103000E014301AB107682F4307
:1029C000076002E00768AF430760F0BD1AB1838A71
:1029D0000B43838202E0838A8B4383827047028A9F
:1029E0004FF6F0731A400282028A0A43028270474D
:1029F00082894FF2FF731A40828182890A43828161
:102A0000704721B1828942F00202828104E082890A
:102A10004FF6FD731A4082817047028A4FF6DF73CA
:102A20001A400282028A0A430282704721B1028A56
:102A300042F48042028204E0028A4BF6FF731A409D
:102A400002827047C1F3080282807047014688887D
:102A5000C0F308007047818941F00101818170470E
:102A6000028BD2B20283028B42EA012202837047B8
:102A7000028B02F47F420283028B0A430283704777
:102A800021B1828A42F02002828204E0828A4FF6DB
:102A9000DF731A408282704721B1828A42F01002AD
:102AA000828204E0828A4FF6EF731A408282704776
:102AB00021B1828A42F00802828204E0828A4FF6C3
:102AC000F7731A408282704721B1828942F4004232
:102AD000828103E08289C2F30E028281704721B1B4
:102AE000828A42F40062828204E0828A4FF2FF739B
:102AF0001A4082827047828A4FF6FB731A408282A4
:102B0000828A0A438282704721B1828A42F002029D
:102B1000828204E0828A4FF6FD731A4082827047F7
:102B200002460020B1F5007F00D100BF13880B40A2
:102B30000BB1012000E00020704701F40072B2F5F3
:102B4000007F00D100BFCA430280704770B50246C3
:102B5000002400230025002040F66A16B14200D16F
:102B600000BFC1F3421501F01F03012606FA03F36B
:102B7000012D02D19689334006E0022D02D1168A3A
:102B8000334001E0968A33400C12012606FA04F421
:102B90001688344013B10CB1012000E0002070BD54
:102BA00010B50022002340F66A14A14200D100BFF4
:102BB0000A1201249440A3B2DC43048010BD00003B
:102BC000003801400044004000480040004C0040F4
:102BD0000050004031490143314A1160704770B5DF
:102BE000002100230F22C47804B32D4C246804F480
:102BF000E064C4F5E064210AC1F10403CA404478EA
:102C000004FA03F18478144021430901254C067825
:102C1000A155047804F01F050124AC4005786D111E
:102C2000AD0005F1E025C5F8004109E0047804F0A5
:102C30001F050124AC401C4D0678761145F826404E
:102C400070BD1A4A0A400243154B1B1F1A60704799
:102C500039B1134A121D12680243114B1B1D1A6031
:102C600006E00F4A121D126882430D4B1B1D1A60AD
:102C70007047042808D14FF0E021096941F00401B0
:102C80004FF0E022116107E04FF0E021096921F0E7
:102C900004014FF0E0221161704700000000FA05C6
:102CA0000CED00E000E400E080E100E080FFFF1FA9
:102CB00001684FF6FE721140016000210160416021
:102CC0008160C1608D49884208D18C4908394968C2
:102CD00041F00F01894A083A51608AE0874914316E
:102CE000884208D185490839496841F0F001834A92
:102CF000083A51607DE081492831884208D17F49F6
:102D00000839496841F470617C4A083A516070E0C2
:102D10007A493C31884208D178490839496841F4F8
:102D20007041764A083A516063E0744950318842F4
:102D300008D172490839496841F470216F4A083A4C
:102D4000516056E06D496431884208D16B490839B9
:102D5000496841F47001694A083A516049E067499D
:102D60007831884208D165490839496841F0706175
:102D7000624A083A51603CE06149884206D1011F2D
:102D8000096841F00F01021F116032E05C49143103
:102D9000884208D15A49091F096841F0F001584A90
:102DA000121F116025E056492831884208D1544944
:102DB000091F096841F47061514A121F116018E03F
:102DC0004F493C31884208D14D49091F096841F4F7
:102DD00070414B4A121F11600BE049495031884243
:102DE00007D14749091F096841F47021444A121F5D
:102DF0001160704710B50022026847F6F0739A43DD
:102E00000C6A8B6823430C6923434C6923438C6908
:102E10002343CC6923434C6A23438C6A23431A43DC
:102E20000260CB6843600B6883604B68C36010BD71
:102E30000021016041608160C16001614161816187
:102E4000C161016241628162704721B1026842F052
:102E50000102026004E002684FF6FE731A4002604D
:102E600070471AB103680B43036002E003688B43A9
:102E700003607047416070470146486880B2704700
:102E800001460020002201F080531BB11C4B083B7F
:102E90001A6802E0194B083B1A6802EA01030BB1F9
:102EA000012000E00020704700F0805119B1144962
:102EB000091F086002E0114908394860704701465F
:102EC0000020002201F080531BB10D4B083B1A6813
:102ED00002E00A4B083B1A6802EA01030BB1012029
:102EE00000E00020704700F0805119B10449091F2B
:102EF000086002E001490839486070470800024054
:102F000008040240704700000FB4044910B503AA3A
:102F1000029800F04FF810BC5DF814FB740000201C
:102F2000032A40F2308010F0030C00F0158011F8F5
:102F3000013BBCF1020F624498BF11F801CB00F8CD
:102F4000013B38BF11F8013BA2F1040298BF00F821
:102F500001CB38BF00F8013B11F0030300F03C80C7
:102F6000083AC0F0088051F8043B083A51F804CB05
:102F7000A0E80810F5E7121D5CBF51F8043B40F8CB
:102F8000043BAFF30080D20724BF11F8013B11F8D6
:102F900001CB48BF11F8012B24BF00F8013B00F81A
:102FA00001CB48BF00F8012B70477047704770474E
:102FB00070470000074B70B50D467B4400F043F8A6
:102FC0000446284600F052F810B14FF0FF3070BDB3
:102FD000204670BDFDEDFFFF10B5203AC0F00B801C
:102FE000B1E81850203AA0E81850B1E81850A0E80D
:102FF0001850BFF4F5AF5FEA027C24BFB1E8185067
:10300000A0E8185044BF18C918C0BDE810405FEAD6
:10301000827C24BF51F8043B40F8043B08BF704752
:10302000D20728BF31F8023B48BF11F8012B28BF57
:1030300020F8023B48BF00F8012B704701694A1C89
:1030400002610878704700B58FB0CDE901310021E9
:10305000059105497944CDE903101146684600F011
:103060002EF80FB000BD0000E5FFFFFF007B00F071
:1030700080007047754600F03DF8AE460500694691
:10308000534620F00700854618B020B5FFF70CF82E
:10309000BDE820404FF000064FF000074FF0000859
:1030A0004FF0000B21F00701AC46ACE8C009ACE8DA
:1030B000C009ACE8C009ACE8C0098D4670472DE9ED
:1030C000F04106460024D6E90170F5688046304696
:1030D00003E04146B847641C3046A8470028F8D1B1
:1030E0002046BDE8F0810446AFF300802046FDF79E
:1030F00066F80000004870472010002090EA010F99
:1031000048BF81F0004100F16082421A3CBF801A42
:1031100089184FEAD0524FF07F4C1CEA410FA2EBC6
:10312000D15318BF9CEA026F00F03B804FF0004C77
:103130004CEA00204CEA012121FA03FC10EB0C0CB4
:103140001ED202F1FF325FEA1C2040EBC25038BFB2
:1031500070471CF07F0F4FEA400C18BFBCF17F4F47
:1031600038BF7047C3F12003994008BF20F0010029
:10317000BCF17F4F38BF7047A0F1C04000F019BAD2
:103180004FEA3C00000A40EBC25028BF1CF0FF0F82
:103190004FEA400CE6D018BFBCF17F4F38BF7047F4
:1031A000EAE79CEA026F05D010EA5C0F08BF00F066
:1031B0000040704710B500F0B6F900BF64FBBE3E9A
:1031C000401058BFC0F14040491058BFC1F14041C4
:1031D0008142EFF3008070474FF47F0C1CEAD0125D
:1031E0001EBF1CEAD11392EA0C0F93EA0C0F00F0F9
:1031F000858090EA010F48BF42F4807240F4000CD1
:1032000041F400002CF07F4120F07F4000B5814266
:10321000A2EB03020FF2081CACEB504EC0F1000011
:103220009EF800E04FEA4E0E00FB0EFC38BF49004E
:103230004FEA2C1C02F5FA020CFB0EF34FEACE1EED
:103240004FEA112C4FEAC1210EEB635E42EB2242A2
:103250000EFB0CFC4FEA1C5300FB03114FEA112C30
:103260004FEA01310EFB0CFC4FEADC4C00FB0C1169
:10327000C14228BF09184CEB03335DF804EB10EB97
:10328000410143EBC250B2F57C0F38BF704729D5DE
:1032900012F0F00F1CBF00F1C04000F0004070477A
:1032A000008182838485868788898B8C8D8E8F911F
:1032B0009293959697999A9C9D9FA0A2A3A5A7A843
:1032C000AAACAEB0B2B3B5B7B9BCBEC0C2C5C7C96F
:1032D000CCCED1D4D7D9DCDFE2E6E9ECF0F3F7FAD3
:1032E000FE0000004FEA400C0CF1807CBCF17E4FE8
:1032F00028BF7047B0F1C04000F05BB990EA010F01
:103300000CEAD11348BF42F48072624538BF63456E
:1033100007D213F47F0F16D080EA010000F00040BE
:10332000704710B500F0FFF8097EFC3E00F005B8CC
:1033300080EA010000F00040704780EA010000F0E0
:10334000004000F036B912F47F0F04BF0248704706
:1033500080EA010000F02DB90000C07F41000B0E93
:10336000D3F19E0208D950F400034FEA032323FA55
:1033700002F048BF4042704710B500F0D4F800BFDB
:1033800049922480002070476FF0004282EA2000BA
:1033900070470000B0FA80F310FA03F2C3F19D0306
:1033A0000AD0D90501EB1220530638BF704700F14F
:1033B000010008BF20F001007047000050EA010C36
:1033C00000F113801CF5000F58BFBCF5000F01D4AD
:1033D0008842704707D710F5000F58BF11F5000F4E
:1033E00015D488427047894270471CF5000F04D5F8
:1033F000BCF5000FF7D5814270474FF0807C1CEB85
:10340000400F38BF1CEB410F01D28142704710B50D
:1034100000F089F8922449004FF000504FF080519D
:10342000FFF7CEBE4FF47F0C1CEAD0121EBF1CEA81
:10343000D11392EA0C0F93EA0C0F00F0478090EA48
:10344000010F48BF42F480724FF0004C4CEA00205C
:103450004CEA012102EB0302A0FB0113A2F50002DA
:10346000002918BF43F001035B0028BF4FEA330374
:1034700042EB22425FEA132C4CEBC2502EBFBCEB56
:10348000436FB2F57C0F70474FEA036CBCF1004FFD
:1034900008BF20F00100B2F57C0F38BF70470BD594
:1034A00082F0FF0212F5803FC8BF704700F1C040B4
:1034B000D8BF00F00040704700F5000C5FEA4C0CEC
:1034C00048BF7047B0F1C04000F073B890EA010FF8
:1034D0000CEAD11348BF42F48072624538BF63459D
:1034E00004D280EA010000F00040704710B500F0FF
:1034F0001AF800BF8900013E00F007B800F009B8D3
:103500005FEA410C5FEA1C6C08D080EA010000F021
:1035100050B85FEA400C5FEA1C6CF6D14FF00040F7
:10352000A0F5800070470EF1020E2EF0030E5EF83B
:10353000044B244204D44FEA4102B2F17F4F11D828
:103540004FEA4003B3F17F4F0CD80ED14FEAD07C45
:10355000B2F17F4F0CEB4C0C0CF1020C08BF4CEBA2
:10356000D17C04E04FF0080C01E04FEAD17C0CEB79
:103570004C0324FA03F404F00704B4F1040C06D25B
:103580000EEB840CBDE810404CF0010C6047DFE806
:103590000CF0070802024FF00040A0F5800010BDBB
:1035A0000846420018BFD2F1807288BF00F0004088
:1035B00010BDFF2141EAD050C005704790EA010FCD
:1035C00048BF81F000413FF5A0AD421A04D882F017
:1035D0000042A0EB020011444FEAD0524FF07F4C62
:1035E0001CEA410FA2EBD15318BF9CEA026F4AD0EC
:1035F0004FF0004C4CEA00204CEA012121FA03FC78
:10360000B0EB0C0C0FD412F0FE0F36D05FEA4C007A
:103610001DD5001240EBC25038BF70471CF03F0F61
:1036200018BF70470BE0A2F101025FEA1C2040EBDB
:10363000C25038BF70471CF07F0F18BF7047C3F1EE
:103640002003994014BF401E20F0010070478008FD
:103650004FEA122308BF7047B0FA80FCA2EB0C02BD
:10366000CCF1280C60FA0CF093EA122F04BF00EBA7
:10367000C25070474FEAC3707047130A5FEADC100C
:1036800008BF7047F6E79CEA026F04D010EA5C0FAF
:1036900008BF0020704710B5FFF745FF40DFF63E3A
:1036A00081F0004070475F5F5F60606061616161F1
:1036B00061626262626263636363636363636464DF
:1036C00064646464646464646464646464646464BA
:1036D00064646363636363636363626262626262BE
:1036E00061616161606060605F5F5F5E5E5E5D5DE5
:1036F0005D5C5C5C5B5B5A5A595959585857575630
:103700005655555454535252515150504F4E4E4DA0
:103710004C4C4B4A4A494848474645454443424237
:1037200041403F3E3E3D3C3B3A39383837363534F0
:10373000333231302F2E2D2C2B2A292827262524D1
:103740002322211F1E1D1C1B1A19171615141311D5
:10375000100F0E0C0B0A09070605030201000000FA
:1037600080370008000000208C0000006C01000879
:103770000C3800088C000020F415000088010008B7
:103780000000000000000000000000000000000039
:103790000000000000000000000000000000000029
:1037A0000000000000000000000000000000000019
:1037B0000000000000000000000000000000000009
:1037C0000000000000000000780000005000000031
:1037D000640000000000000000A24A040000000095
:1037E00000000000010203040607080900000000B1
:1037F00000000000000000000000000001020304BF
:0C38000001020304060708090204060880
:0400000508000131BD
:00000001FF
